:100000000C9434000C9451000C9451000C94510049
:100010000C9451000C9451000C9451000C9451001C
:100020000C9451000C94F6010C9451000C940402B1
:100030000C9451000C9451000C9451000C945100FC
:100040000C947F010C9451000C94C9010C94510044
:100050000C9451000C9451000C9451000C945100DC
:100060000C9451000C94510011241FBECFEFD8E026
:10007000DEBFCDBF11E0A0E0B1E0E2E8FDE002C0EC
:1000800005900D92A234B107D9F726E0A2E4B1E0C1
:1000900001C01D92A53EB207E1F70E9403050C9432
:1000A000BF060C9400003FB7F8948091CD02909168
:1000B000CE02A091CF02B091D00226B5A89B05C078
:1000C0002F3F19F00196A11DB11D3FBFBA2FA92FD7
:1000D000982F8827BC01CD01620F711D811D911DD4
:1000E00042E0660F771F881F991F4A95D1F7089540
:1000F0008F929F92AF92BF92CF92DF92EF92FF9238
:100100000E9453004B015C0188EEC82E83E0D82E7C
:10011000E12CF12C0E945300681979098A099B0986
:10012000683E734081059105A8F321E0C21AD10809
:10013000E108F10888EE880E83E0981EA11CB11C2E
:10014000C114D104E104F10429F7FF90EF90DF908E
:10015000CF90BF90AF909F908F9008954091D20222
:100160005091D3029A0136952795842780FD05C0CA
:100170003093D3022093D202089588E0282784E8A0
:100180003827F6CF0F931F93CF93DF93182F8093C9
:10019000CB021092CA02D1E002E38091CA028830F9
:1001A00008F04DC0C091CB02C170C093C9021E3788
:1001B00001F5C11141C01092C8028091D402873666
:1001C000B9F187E68093D4028091CB0290E09595B7
:1001D00087958093CB02D093C7020093B2008091A1
:1001E000C7028111FCCF8091CA028F5F8093CA023F
:1001F000D4CF8C2F90E00E94AE00CC23E1F280910E
:10020000C8028F5F8093C8028530F1F6D093C70291
:100210000093B2008091C7028111FCCF8091D4027B
:10022000873641F487E38093D4021092C802CCCF82
:1002300087E3C8CF87E6F7CFD093C802C5CFDF9159
:10024000CF911F910F910895CF938091D202C091C9
:10025000D302C095C093C60280950E94C2008C2F25
:100260000E94C2008EE70E94C20010928B05F89493
:1002700085B115B889E080938100E0E7F0E08081E6
:100280008E7F80838CEB94E090938900809388002C
:1002900078941092D502CF910895209183053091E2
:1002A00084052F5F3F4F3093840520938305283AC0
:1002B000324020F01092840510928305E09183056E
:1002C000F0918405E552FD4F80830895DC01FC0127
:1002D00001900020E9F73197E81BF90B9D01281BDD
:1002E000390B2E173F0750F42D91222339F030910E
:1002F000C00035FFFCCF2093C600E9CF08951F92C0
:100300000F920FB60F9211242F933F938F939F93C9
:10031000AF93BF938091D7029091D802A091D90258
:10032000B091DA023091CC0223E0230F2D3758F53B
:100330000196A11DB11D2093CC028093D70290930A
:10034000D802A093D902B093DA028091CD029091A5
:10035000CE02A091CF02B091D0020196A11DB11D95
:100360008093CD029093CE02A093CF02B093D0029F
:10037000BF91AF919F918F913F912F910F900FBEA1
:100380000F901F90189526E8230F0296A11DB11D0E
:10039000D2CF1F920F920FB60F9211242F938F93EB
:1003A0009F93EF93FF938091E1069091E20601966F
:1003B0009093E2068093E1068435914020F01092FC
:1003C000E2061092E106E091E106F091E2068091EA
:1003D000C600E457FA4F8083FF91EF919F918F9170
:1003E0002F910F900FBE0F901F9018951F920F9294
:1003F0000FB60F9211241092C7021092B2000F9004
:100400000FBE0F901F9018951F920F920FB60F926C
:1004100011246F927F928F929F92AF92BF92CF9250
:10042000DF92EF92FF920F931F932F933F934F937F
:100430005F936F937F938F939F93AF93BF93CF936C
:10044000DF93EF93FF9380918B05882389F1E091EF
:10045000D502EF5FEF70E093D502F0E0E050FF4F80
:10046000808185B98091D40290E090938900809337
:100470008800FF91EF91DF91CF91BF91AF919F9154
:100480008F917F916F915F914F913F912F911F912C
:100490000F91FF90EF90DF90CF90BF90AF909F9023
:1004A0008F907F906F900F900FBE0F901F901895B8
:1004B000209179008091C4029091C502820F911D14
:1004C0009093C5028093C4023091C3023F5F309382
:1004D000C302303861F4880F892F881F990B8093ED
:1004E000C2021092C3021092C5021092C4028091FF
:1004F000C202281B8091C1028F5F873009F494C02B
:100500008093C102E091C102F0E0EE0FFF1FEF54B3
:10051000FD4F8091BF029091C00240815181841BA8
:10052000950B4091B0022402A00111245183408315
:10053000840F951F9093C0028093BF02843691056B
:100540000CF475C081E08093AA028091A9028F5FAC
:10055000893C08F073C08093A9021092A802809190
:10056000AF028093B0028091AE028093AF0280917F
:10057000AD028093AE028091AC028093AD02809177
:10058000AB028093AC022093AB023091A702209182
:10059000AA024091A502332309F462C08091A60209
:1005A0009FEF980F9093A602241761F02093A50265
:1005B0001092A90238EF380F323008F041C0825053
:1005C0008093A6028091A602811114C08BE08093D3
:1005D000A60280919C0291E0980F90939C029091CA
:1005E0009B02921739F08E5F8093A80210929C02B2
:1005F00020939B02E091A802EE2309F43ACFE15048
:10060000E093A802E150E73008F007C1F0E0E35FB3
:10061000FC4F80919D020C94B9068B0360036A0322
:10062000B803BB03BE03E3031092C1026BCF8D3945
:100630009F4F0CF08ACF1092AA0287CF88EC8BCF05
:10064000923008F4BDCF8A50823008F0BBCF809141
:10065000A4028F5F863008F0B4C18093A402B2CFA9
:100660009091A902892F8B3010F08B50FCCF809392
:100670009A029B5F51E0530F9C3018F09B50352F2E
:10068000F9CF30939C0290939902241709F4F1CE8C
:100690002093A5021092A9028450843058F410923D
:1006A0009E0210929F021092A0021092A10210923C
:1006B0009D02289880919C028F5F8093A8029ACF18
:1006C00021E030E0A90102C0440F551F8A95E2F7EE
:1006D000CA0109C023E030E0F90102C0EE0FFF1F9C
:1006E0008A95E2F7CF01092E000CAA0BBB0B4091B3
:1006F0009E0250919F026091A0027091A102842BF2
:10070000952BA62BB72B80939E0290939F02A093CC
:10071000A002B093A10280919D029091A802890F3E
:1007200080939D02DD24D39428E0C22EEE24EA9427
:10073000FE2C42E0942E5FE0852E80919D02883051
:1007400008F45FC120919E028091A7022E3709F024
:1007500026C1811176C0D092A7028091AA0280930F
:100760009B021092A4028092A60210929C0270C07A
:1007700027E030E0A7CF2FE030E0AECF2FE130E030
:10078000A90102C0440F551F8A95E2F7CA01092E3C
:10079000000CAA0BBB0B40919E0250919F026091EE
:1007A000A0027091A102842B952BA62BB72B8093CE
:1007B0009E0290939F02A093A002B093A10285E0B5
:1007C0008093A802A8CF843090F48EE790E0A0E058
:1007D000B0E080939E0290939F02A093A002B093FA
:1007E000A10288E080939D021092A80294CF80918C
:1007F0009E0290919F02A091A002B091A102992720
:10080000AA27BB279E6780939E0290939F02A09386
:10081000A002B093A10280E1E5CF1092A302109252
:10082000A2021092A70210929E0210929F021092B2
:10083000A0021092A10210929D021092A802289884
:100840006ACFC091A202D091A302CA30D10510F59F
:10085000C09298022091980280919E0290919F02EE
:10086000A091A002B091A102022E04C0B695A79556
:10087000979587950A94D2F780939E0290939F0252
:10088000A093A002B093A10280919D02821B80934D
:100890009D0253CF10924201F092D302E092D20215
:1008A00093E4A92E91E0B92E8E0102501109C501E1
:1008B000835491408017910778F4F50161905F01AE
:1008C00088E0782E862D817090E00E94AE006694BC
:1008D0007A947110F7CFEBCF9091D2028091D3022E
:1008E000F801ED5BFE4F90952081291351C0CE5B3E
:1008F000DE4F8095988198134BC003E411E08091FE
:10090000A2029091A3020297980123543140281724
:100910003907A8F5F801C1918F018091420181301A
:1009200031F180F08230D1F0C03C19F48BED0E949F
:100930004D018C2F0E944D01CB3D09F78DED0E949A
:100940004D01DDCF80EC0E944D0180E00E944D0101
:100950008C2F0E944D01D0924201D1CFC03F91F423
:1009600080EF0E944D0183E080934201C8CFC330E5
:10097000D9F683E00E944D0190924201C0CF80ECF5
:100980000E944D018DE00E944D018AE00E944D01C0
:100990001092A3021092A2021092A402E6CE81301D
:1009A00069F58091A2029091A302FC01ED5BFE4FDC
:1009B000208301969093A3028093A20285359140F3
:1009C000C0F01092A4021092A3021092A202109200
:1009D000A70210929E0210929F021092A002109203
:1009E000A10210929D021092A60210929C022898D9
:1009F00040CD233009F02CCF289A2ACFD0929802EC
:100A000029CF789436CD8091F20080618EBB90E83A
:100A10009093F2008EB38093F2009093610081E096
:100A2000809361009093610080936100789494B505
:100A3000926094BD94B5916094BD95B5926095BD5A
:100A400095B5916095BD90916E00916090936E0008
:100A5000109281009091810092609093810090911A
:100A600081009160909381009091800091609093BB
:100A700080009091B10094609093B1009091B0008B
:100A800091609093B000909191009260909391004A
:100A9000909191009160909391009091900091605D
:100AA0009093900090917A00946090937A00909146
:100AB0007A00926090937A0090917A00916090937E
:100AC0007A0090917A00906890937A001092C10019
:100AD00098E129E20FB6F894A895909360000FBEB4
:100AE00020936000F8941092C50097E69093C4009C
:100AF0009091C00092609093C0009091C100986165
:100B00009093C1009091C20096609093C200909122
:100B1000C10090689093C10090E490937C00909104
:100B20007C00906290937C0024E020937A00909166
:100B30007A00906290937A0010927B0090917E00F0
:100B4000916090937E0090917A00906890937A00E3
:100B500090917A00906490937A001092800099E0CE
:100B600090938100109282004CEB54E050938900E6
:100B70004093880092E090936F001092B000209311
:100B8000B10087BB8FE384B985B115B80E947800A6
:100B900080E191E00E9466018DE391E00E94660190
:100BA00078940E94780084E0D82E9AE0C92E2DEC2B
:100BB000B22E00E010E037E6A32E99249394EE24A1
:100BC000EA94FE2C8BB18D258BB92091E3063091F0
:100BD000E4068091E1069091E2062817390709F4AE
:100BE0005EC08091E3069091E40601969093E4063E
:100BF0008093E3068435914020F01092E406109231
:100C0000E306E091E306F091E406E457FA4FC08171
:100C10008091D602803C21F5C1112CC01092D502E2
:100C2000A092D402F894809170008160809370004B
:100C3000C0928100B092B20090928B057894F092AD
:100C4000D302E092D2021092D102D091D102D233DB
:100C500088F48EE70E94C200DF5FD093D102F5CF07
:100C6000C03C09F05FC080918B05813009F069C0FC
:100C70000E942401C093D6022FB7F8948091D70226
:100C80009091D802A091D902B091DA022FBF80933F
:100C9000870590938805A0938905B0938A05809174
:100CA0008B058823F1F02FB7F8948091D7029091AB
:100CB000D802A091D902B091DA022FBF40918705E6
:100CC000509188056091890570918A05841B950B68
:100CD000A60BB70B893E9340A105B10510F00E9409
:100CE000240120918505309186058091830590919E
:100CF000840528173907A9F180918505909186050B
:100D000001969093860580938505883A924020F05D
:100D100010928605109285058091C00085FD18C04F
:100D2000A895FACFCC3D39F48B3D09F0A3CF80ECE8
:100D30000E94C2009FCFCD3D21F48B3D09F09ACF98
:100D4000F7CF80918B05813009F094CF8C2FF0CFB5
:100D5000E0918505F0918605E552FD4F80818093F5
:100D6000C600A8950115110509F42CCF0E940000BA
:100D700029CFEE0FFF1F0590F491E02D0994F89410
:020D8000FFCFA3
:100D82003A162E1E3E1E2E16062A12220222122A61
:100D920041726475696E6F20544E4320762E302E58
:100DA20031352E34206279205944304E585820660D
:100DB2006F72204C4754384633323850000A0A0AC0
:020DC20000002F
:00000001FF
